:100000000C942A000C9447000C9447000C94470071
:100010000C9447000C9447000C9447000C94470044
:100020000C9447000C9447000C9447000C94470034
:100030000C9447000C9447000C9447000C94470024
:100040000C9447000C9447000C9447000C94470014
:100050000C94470011241FBECFE5D4E0DEBFCDBF16
:1000600010E0A0E6B0E0E6E3F2E002C005900D92F9
:10007000A636B107D9F710E0A6E6B0E001C01D92A0
:10008000A836B107E1F70E94D5000C9419010C9431
:100090000000282F207F28BBC298C39A20ED37E0AC
:1000A000F9013197F1F7C398F9013197F1F790E031
:1000B00044E0880F991F4A95E1F788BBC298C39A1C
:1000C000C9010197F1F7C398C9010197F1F70895A4
:1000D00082E090E00E94490088E290E00E9449009E
:1000E00086E090E00E9449008CE090E00E94490088
:1000F0000895282F207F28BBC29AC39A20ED37E0AD
:10010000F9013197F1F7C398F9013197F1F790E0D0
:1001100054E0880F991F5A95E1F788BBC29AC39A99
:10012000C9010197F1F7C398C9010197F1F7089543
:1001300081E00E94490080ED97E00197F1F7089572
:100140001F93CF93DF93EC0110E003C00E9479006E
:100150001F5FFE01E10FF11D80818823B9F7DF9158
:10016000CF911F910895CF93DF93EC0184E00E941B
:100170004900209791F480E30E9479000EC0CE01DF
:100180006AE070E00E940501805D0E947900CE0166
:100190006AE070E00E940501EB01209781F786E09C
:1001A0000E944900DF91CF910895CF93DF938FEFA5
:1001B00087BB0E946800C8ECD0E00E94980085E8E8
:1001C0000E94490080E690E00E94A0001092670023
:1001D0001092660013C08CE10E94490088EE93E003
:1001E000FE013197F1F70197D9F780916600909160
:1001F0006700019690936700809366008091660087
:10020000909167000697CCF6E6CFAA1BBB1B51E185
:1002100007C0AA1FBB1FA617B70710F0A61BB70B76
:10022000881F991F5A95A9F780959095BC01CD011B
:060230000895F894FFCFD1
:0602360068656C6C6F00AE
:00000001FF
